:100000000C9462000C948A000C948A000C948A0070
:100010000C948A000C948A000C948A000C948A0038
:100020000C948A000C948A000C948A000C948A0028
:100030000C948A000C948A000C948A000C948A0018
:100040000C948B020C948A000C948A000C948A0005
:100050000C948A000C948A000C948A000C948A00F8
:100060000C948A000C948A000000000024002700F1
:100070002A0000000000250028002B0000000000DE
:1000800023002600290004040404040404040202DA
:100090000202020203030303030301020408102007
:1000A0004080010204081020010204081020000012
:1000B0000008000201000003040700000000000027
:1000C0000000900611241FBECFEFD8E0DEBFCDBFE9
:1000D00011E0A0E0B1E0E6E6F0E102C005900D928B
:1000E000A832B107D9F722E0A8E2B1E001C01D9221
:1000F000A234B207E1F710E0C2E6D0E004C02197D5
:10010000FE010E941708C136D107C9F70E94D50227
:100110000C9431080C940000833081F028F4813075
:1001200099F08230A9F008958730A9F08830C9F09D
:100130008430B1F4809180008F7D03C08091800075
:100140008F7780938000089584B58F7784BD08955C
:1001500084B58F7DFBCF8091B0008F778093B00006
:1001600008958091B0008F7DF9CFCF93DF93282F32
:1001700030E0F901E255FF4F8491F901E656FF4F57
:10018000D491F901EA57FF4FC491CC23A1F081111A
:100190000E948C00EC2FF0E0EE0FFF1FE458FF4FA1
:1001A000A591B491EC91ED2381E090E009F480E019
:1001B000DF91CF91089580E090E0FACF1F93CF9325
:1001C000DF93282F30E0F901E255FF4F8491F901C8
:1001D000E656FF4FD491F901EA57FF4FC491CC2363
:1001E000A9F0162F81110E948C00EC2FF0E0EE0F89
:1001F000FF1FEE58FF4FA591B4918FB7F894EC9183
:10020000111108C0D095DE23DC938FBFDF91CF9111
:100210001F910895DE2BF8CFCF93DF9390E0FC0180
:10022000E656FF4F24918A579F4FFC018491882303
:10023000D1F090E0880F991FFC01E859FF4FA5917C
:10024000B491FC01EE58FF4FC591D491623071F426
:100250009FB7F8943C91822F809583238C93E881FB
:100260002E2B28839FBFDF91CF9108958FB7F894ED
:10027000EC912E2B2C938FBFF6CF3FB7F894809143
:100280002D0190912E01A0912F01B091300126B542
:10029000A89B05C02F3F19F00196A11DB11D3FBFBE
:1002A000BA2FA92F982F8827BC01CD01620F711D8D
:1002B000811D911D42E0660F771F881F991F4A9587
:1002C000D1F708958F929F92AF92BF92CF92DF9213
:1002D000EF92FF924B015C010E943D016B017C019A
:1002E0000E943D016C197D098E099F09683E73408B
:1002F00081059105A8F321E0821A9108A108B108AF
:1003000088EEC80E83E0D81EE11CF11C8114910414
:10031000A104B10429F7FF90EF90DF90CF90BF9038
:10032000AF909F908F900895CF92DF92EF92FF92BF
:100330000F931F93CF93DF9300D0CDB7DEB76983C0
:100340004A83880F991F0091400210914102000FCB
:10035000111FEAEEF1E09F012A5E314020173107BC
:1003600014F41192F8CF2981FC01E651FE4F21834C
:100370008A81808360E080913E020E94DE00101638
:10038000110604F501501109F801E651FE4FE08015
:10039000D0903C02C0903A0288E0F82E6E2D661F85
:1003A0006627661F8C2D0E94DE00EE0C61E08D2D0D
:1003B0000E94DE0060E08D2D0E94DE00FA94F110B4
:1003C000EDCFDDCF61E080913E020F900F90DF9185
:1003D000CF911F910F91FF90EF90DF90CF900C94F1
:1003E000DE00EF92FF921F93CF93DF9320914002A4
:1003F0003091410282179307B4F4EC0123E0880F97
:10040000991F2A95E1F79C0126503E4F790111E092
:10041000F70111927F0140E0612FCE010E9494010B
:100420001F5F1930A9F7DF91CF911F91FF90EF90D7
:100430000895209140023091410212161306FCF4F7
:1004400088309105E0F468307105C8F420E830E0A8
:1004500002C0359527956A95E2F7FC01E651FE4FFB
:100460005089442349F0252B208B61E0680F408997
:1004700090E080E00C94940120952523F5CF089519
:10048000CF92DF92EF92FF920F931F93CF93DF9360
:10049000209140023091410212161306ECF488308C
:1004A0009105D0F47C01D0E0C0E0062F10E087E099
:1004B000C82ED12CC6018C1B9D0BA80102C05595DE
:1004C00047958A95E2F74170B701CE010E94190263
:1004D0002196C830D10571F7DF91CF911F910F910F
:1004E000FF90EF90DF90CF900895462F209140022B
:1004F00030914102121613066CF48830910550F4C5
:10050000FC01E651FE4F608B61E0680F90E080E0F7
:100510000C94940108951F920F920FB60F9211241C
:100520002F933F938F939F93AF93BF938091290114
:1005300090912A01A0912B01B0912C0130912801BA
:1005400023E0230F2D3758F50196A11DB11D2093EF
:1005500028018093290190932A01A0932B01B09345
:100560002C0180912D0190912E01A0912F01B0912D
:1005700030010196A11DB11D80932D0190932E0194
:10058000A0932F01B0933001BF91AF919F918F91B4
:100590003F912F910F900FBE0F901F90189526E856
:1005A000230F0296A11DB11DD2CF789484B582602D
:1005B00084BD84B5816084BD85B5826085BD85B507
:1005C000816085BD80916E00816080936E00109285
:1005D0008100809181008260809381008091810000
:1005E0008160809381008091800081608093800091
:1005F0008091B10084608093B1008091B0008160EF
:100600008093B00080917A00846080937A0080911A
:100610007A00826080937A0080917A008160809372
:100620007A0080917A00806880937A001092C100ED
:10063000E0E4F1E01192119221E0E43EF207D1F7FB
:1006400080914002909141021816190634F441E05D
:100650006CE090E080E00E949401809140029091D3
:1006600041021816190634F440E06AE090E080E098
:100670000E94940190E080E00E94F10162E085E038
:100680000E940C0162E086E00E940C0185E00E945D
:10069000B5000197D9F386E00E94B5000197B1F348
:1006A00080E480937C0080917A00806480937A005B
:1006B00080917A0086FDFCCF80917800609179006E
:1006C000762F682F072E000C880B990B611571058A
:1006D0008105910511F00E9497070E94480727E0C5
:1006E000C22ED12CE12CF12CA70196010E94A0076B
:1006F00070930101609300010E944807A7019601D1
:100700000E94A007709303016093020141E0809171
:100710000001909101010E94190237E0432E512CF3
:10072000612C712C22242394312C57E0852E912C9E
:1007300080910501882309F49EC12091E801309140
:10074000E9018091E6019091E70121303105F1F452
:100750000196843091052CF49093E7018093E60193
:1007600004C01092E7011092E601ECEDF1E04CE3D9
:1007700051E04E175F0799F08081918195838483C2
:1007800082819381978386833497F1CF2F3F3F4FA8
:1007900061F7019797FFE0CF83E090E0DDCF109203
:1007A000E5011092E4012091E6013091E70180918A
:1007B0004201909143012115310509F073C08091E8
:1007C0004001909141010196883091050CF473C06D
:1007D0001092410110924001E0904201F0904301DB
:1007E000A0904001B090410141E0B701C5010E94D5
:1007F00019021092E9011092E8014AEA50E0509380
:100800003F0140933E0111E0C0913E01D0913F0174
:10081000D7FD6DC086E00E94B500019739F485E0F0
:100820000E94B500019711F4109304018091E80132
:100830009091E901892BE1F4809104018823C1F0B2
:1008400086E00E94B500892B31F43092E9012092B4
:10085000E8011092040185E00E94B500892B41F463
:100860008FEF9FEF9093E9018093E80110920401CC
:10087000C635D1055CF4609102017091030140E03E
:1008800080910001909101010E94190261E070E0E5
:1008900080E090E00E9462012197D0933F01C093D5
:1008A0003E01B2CF2230310581F480914001909118
:1008B0004101019728F090934101809340018CCF32
:1008C000909241018092400187CF2130310509F09B
:1008D0001BC20196883091052CF4909343018093BC
:1008E00042017ACF109243011092420175CF0091DC
:1008F000020110910301C0900001D090010141E07C
:10090000B801C6010E941902C0913C01D0913D017D
:10091000FE01EE0FFF1FDF01AA0FBB1FAE5BBE4F34
:100920006D917C91EE0FFF1FE05CFE4F40E08081F7
:1009300091810E941902AC14BD0409F04AC0E0166E
:10094000F10609F046C02196D0933D01C0933C01C9
:100950000E944807A30192010E94A0077093010121
:10096000609300010E944807A30192010E94A00722
:10097000DB0170930301609302018091000190916B
:10098000010120913C0130913D01F901EE0FFF1F63
:10099000EE0FFF1FE05CFE4F37FD13C04081518119
:1009A0008417950751F442815381A417B50729F4A0
:1009B0003093E5012093E401CBCF215031093497E6
:1009C000EBCF3093E5012093E40141E0BD010E94AB
:1009D000190280913C0190913D01893291052CF0E2
:1009E0001092050121E020933B01209140013091BC
:1009F00041014091420150914301FC01EE0FFF1F64
:100A0000EE0FFF1FE05CFE4F1816190664F090937E
:100A1000E5018093E40180E090E0892B09F488CE21
:100A20000E94000085CE608171812617370701F58D
:100A30006281738146175707D9F49093E50180933B
:100A4000E4011092050181E080933B0185E00E9462
:100A5000B500892B39F462E370E080E090E00E94F9
:100A60006201F4CF86E00E94B500892BA1F3D3CFB9
:100A700001973497C9CF80913B01882309F405C1C0
:100A8000609102017091030140E08091000190911A
:100A900001010E941902C0903C01D0903D01D0920A
:100AA000E501C092E401C091E401D091E5011C167A
:100AB0001D06FCF4FE01EE0FFF1FDF01AA0FBB1F96
:100AC000AE5BBE4F6D917C91EE0FFF1FE05CFE4F61
:100AD00040E0808191810E94190268E270E080E02C
:100AE00090E00E9462012197D093E501C093E40158
:100AF000DACF9092E5018092E401C091E401D091B7
:100B0000E501D7FD10C06FEFCE010E9440026EE1FB
:100B100070E080E090E00E9462012197D093E501AF
:100B2000C093E401EACF9092E5018092E401C09184
:100B3000E401D091E501D7FD10C060E0CE010E9434
:100B400040026EE170E080E090E00E946201219737
:100B5000D093E501C093E401EACF90E080E00E94E9
:100B6000F101C6016AE070E00E9403087B01709306
:100B70003A016093390126EF2603C001279F900DAB
:100B80001124C80ED91ED0923801C092370110929C
:100B90003601109235013092340120923301809158
:100BA000330190913401883091050CF06CC0843091
:100BB00091050CF5F0923201E0923101C0913501BE
:100BC000D09136010091330110913401E09131014F
:100BD000F0913201EA30F10530F5EF50FA4F0C9404
:100BE00017080C061F06230627062B062F063306BA
:100BF00037063B063F06049709F745E050E050935F
:100C0000340140933301D0923201C09231011092ED
:100C1000360110923501D2CFFE01EB5DFE4F6081AF
:100C2000C8010E9475020F5F1F4F1093340100939B
:100C300033012196D0933601C0933501B0CFFE0128
:100C4000EE5DFE4FECCFFE01E15EFE4FE8CFFE0110
:100C5000E45EFE4FE4CFFE01E75EFE4FE0CFFE0113
:100C6000EA5EFE4FDCCFFE01ED5EFE4FD8CFFE0107
:100C7000E05FFE4FD4CFFE01E35FFE4FD0CFFE0119
:100C8000E65FFE4FCCCF10923B0185E00E94B5009D
:100C9000892B09F0C0CE86E00E94B500892B09F0AF
:100CA000BACE90E080E00E94F1010E944807A301C3
:100CB00092010E94A00770930101609300010E94BD
:100CC0004807A30192010E94A0077093030160935B
:100CD000020141E080910001909101010E941902FE
:100CE00010923D0110923C0110924101109240017E
:100CF00010924301109242011092E7011092E60116
:100D000081E08093050187CE2330310509F064CD61
:100D1000019708F0E2CD90924301809242015CCDB0
:100D2000CF93DF93C4E0D0E0D0933B02C0933A026C
:100D300082E090E090933D0280933C0283E090E05B
:100D400090933F0280933E0281E090E090934102B5
:100D50008093400261E084E00E940C0161E0809198
:100D60003C020E940C0161E080913E020E940C0155
:100D700061E080913E020E94DE00D0933B02C0936E
:100D80003A02EAEFF1E08AE392E011928E179F07B0
:100D9000E1F7D0E0C0E08091400290914102C81795
:100DA000D9073CF540E06FE0CE010E9494018091AC
:100DB000400290914102C817D9072CF447E06BE03C
:100DC000CE010E94940140E069E0CE010E949401AE
:100DD000CE010E94F1018091400290914102C8171A
:100DE000D9072CF440E06CE0CE010E9494012196DA
:100DF000D2CFDF91CF9108958F929F92AF92BF9201
:100E0000CF92DF92EF92FF92CF93DF93EC01688154
:100E100079818A819B81611571058105910521F494
:100E200064E279ED8BE597E02DE133EF41E050E0AE
:100E30000E94A00749015A019B01AC01A7EAB1E455
:100E40000E94BF076B017C01ACEEB4EFA5019401D9
:100E50000E94CD07C60ED71EE81EF91EF7FE06C07B
:100E600081E0C81AD108E10880E8F80AC882D9826E
:100E7000EA82FB82C701B6019F77DF91CF91FF9095
:100E8000EF90DF90CF90BF90AF909F908F9008959C
:100E90008F929F92AF92BF92CF92DF92EF92FF928A
:100EA00060910601709107018091080190910901FC
:100EB000611571058105910521F464E279ED8BE5F9
:100EC00097E02DE133EF41E050E00E94A007490197
:100ED0005A019B01AC01A7EAB1E40E94BF076B0174
:100EE0007C01ACEEB4EFA50194010E94CD07C60EC3
:100EF000D71EE81EF91EF7FE06C081E0C81AD10809
:100F0000E10880E8F80AC0920601D0920701E09259
:100F10000801F0920901C701B6019F77FF90EF9099
:100F2000DF90CF90BF90AF909F908F900895609387
:100F300006017093070180930801909309010895B9
:100F4000052E97FB1EF400940E94B70757FD07D0AB
:100F50000E94D20707FC03D04EF40C94B7075095BB
:100F60004095309521953F4F4F4F5F4F0895909595
:100F70008095709561957F4F8F4F9F4F08950E9488
:100F8000F407A59F900DB49F900DA49F800D911D17
:100F900011240895B7FF0C94BF070E94BF07821B5E
:100FA000930B0895A1E21A2EAA1BBB1BFD010DC0D5
:100FB000AA1FBB1FEE1FFF1FA217B307E407F50709
:100FC00020F0A21BB30BE40BF50B661F771F881FE5
:100FD000991F1A9469F760957095809590959B017B
:100FE000AC01BD01CF010895A29FB001B39FC00124
:100FF000A39F700D811D1124911DB29F700D811D45
:101000001124911D089597FB072E16F4009407D024
:1010100077FD09D00E941D0807FC05D03EF490958D
:1010200081959F4F0895709561957F4F0895EE0FBC
:10103000FF1F0590F491E02D0994AA1BBB1B51E101
:1010400007C0AA1FBB1FA617B70710F0A61BB70B38
:10105000881F991F5A95A9F780959095BC01CD01DD
:061060000895F894FFCF93
:10106600040004000101010000005C547C7C547CF7
:1010760004047C7C54745C54741C107C54547C743E
:08108600545C00087C7C447CF2
:00000001FF
